0112201100000002022776000000005
CI       354000237CNCBJ Dividend Payment                     00000000000421.60JMD   01122011                              N                                                                                          
CI       374009699CNCBJ Dividend Payment                     00000000001688.10JMD   01122011                              N                                                                                          
CI       364200099CNCBJ Dividend Payment                     00000000000051.00JMD   01122011                              N                                                                                          
CI       104200362CNCBJ Dividend Payment                     00000000002040.00JMD   01122011                              N                                                                                          
CI       104200362CNCBJ Dividend Payment                     00000000002040.00JMD   01122011                              N                                                                                          
CI       584000678CNCBJ Dividend Payment                     00000000007178.76JMD   01122011                              N                                                                                          
CI       334169049CNCBJ Dividend Payment                     00000000000421.60JMD   01122011                              N                                                                                          
CI       504032477CNCBJ Dividend Payment                     00000000001224.00JMD   01122011                              N                                                                                          
CI       474106675CNCBJ Dividend Payment                     00000000000816.00JMD   01122011                              N                                                                                          
CI       354000806CNCBJ Dividend Payment                     00000000000346.80JMD   01122011                              N                                                                                          
CI       504149862CNCBJ Dividend Payment                     00000000000058.14JMD   01122011                              N                                                                                          
CI       214200554CNCBJ Dividend Payment                     00000000000204.00JMD   01122011                              N                                                                                          
CI       064229583CNCBJ Dividend Payment                     00000000000510.00JMD   01122011                              N                                                                                          
CI       304020652CNCBJ Dividend Payment                     00000000000168.64JMD   01122011                              N                                                                                          
CI       354001845CNCBJ Dividend Payment                     00000000000408.00JMD   01122011                              N                                                                                          
CI       061019081CNCBJ Dividend Payment                     00000000000421.60JMD   01122011                              N                                                                                          
CI       304676280CNCBJ Dividend Payment                     00000000000612.00JMD   01122011                              N                                                                                          
CI       504067467CNCBJ Dividend Payment                     00000000000255.00JMD   01122011                              N                                                                                          
CI       404222910CNCBJ Dividend Payment                     00000000003468.00JMD   01122011                              N                                                                                          
CI       324211659CNCBJ Dividend Payment                     00000000000051.00JMD   01122011                              N                                                                                          
CI       324211659CNCBJ Dividend Payment                     00000000000210.12JMD   01122011                              N                                                                                          
CI       233000051CNCBJ Dividend Payment                     00000000000258.40JMD   01122011                              N                                                                                          
CI       354213842CNCBJ Dividend Payment                     00000000001020.00JMD   01122011                              N                                                                                          
CI       644188167CNCBJ Dividend Payment                     00000000002856.00JMD   01122011                              N                                                                                          
CI       544204335CNCBJ Dividend Payment                     00000000000408.00JMD   01122011                              N                                                                                          
CI       434001587CNCBJ Dividend Payment                     00000000006405.60JMD   01122011                              N                                                                                          
CI       544204335CNCBJ Dividend Payment                     00000000000408.00JMD   01122011                              N                                                                                          
CI       434241952CNCBJ Dividend Payment                     00000000000816.00JMD   01122011                              N                                                                                          
CI       434960851CNCBJ Dividend Payment                     00000000000843.88JMD   01122011                              N                                                                                          
CI       214002647CNCBJ Dividend Payment                     00000000000612.00JMD   01122011                              N                                                                                          
CI       324002952CNCBJ Dividend Payment                     00000000000124.85JMD   01122011                              N                                                                                          
CI       714002341CNCBJ Dividend Payment                     00000000000816.00JMD   01122011                              N                                                                                          
CI       304635053CNCBJ Dividend Payment                     00000000001020.00JMD   01122011                              N                                                                                          
CI       304217219CNCBJ Dividend Payment                     00000000000408.00JMD   01122011                              N                                                                                          
CI       504262138CNCBJ Dividend Payment                     00000000000173.40JMD   01122011                              N                                                                                          
CI       304647744CNCBJ Dividend Payment                     00000000000816.00JMD   01122011                              N                                                                                          
CI       564000337CNCBJ Dividend Payment                     00000000000358.36JMD   01122011                              N                                                                                          
CI       564000337CNCBJ Dividend Payment                     00000000001922.70JMD   01122011                              N                                                                                          
CI       364006721CNCBJ Dividend Payment                     00000000000510.00JMD   01122011                              N                                                                                          
CI       333023830CNCBJ Dividend Payment                     00000000004618.22JMD   01122011                              N                                                                                          
CI       244202969CNCBJ Dividend Payment                     00000000000173.40JMD   01122011                              N                                                                                          
CI       064434950CNCBJ Dividend Payment                     00000000000065.28JMD   01122011                              N                                                                                          
CI       644100197CNCBJ Dividend Payment                     00000000002116.50JMD   01122011                              N                                                                                          
CI       644100197CNCBJ Dividend Payment                     00000000000204.00JMD   01122011                              N                                                                                          
CI       374002864CNCBJ Dividend Payment                     00000000000023.12JMD   01122011                              N                                                                                          
CI       853127396CNCBJ Dividend Payment                     00000000000244.80JMD   01122011                              N                                                                                          
CI       853127396CNCBJ Dividend Payment                     00000000000388.62JMD   01122011                              N                                                                                          
CI       235172232CNCBJ Dividend Payment                     00000000000346.80JMD   01122011                              N                                                                                          
CI       754043474CNCBJ Dividend Payment                     00000000000029.19JMD   01122011                              N                                                                                          
CI       101023427CNCBJ Dividend Payment                     00000000000204.00JMD   01122011                              N                                                                                          
CI       324232141CNCBJ Dividend Payment                     00000000000693.60JMD   01122011                              N                                                                                          
CI       684226533CNCBJ Dividend Payment                     00000000001213.80JMD   01122011                              N                                                                                          
CI       234228811CNCBJ Dividend Payment                     00000000007087.30JMD   01122011                              N                                                                                          
CI       375008386CNCBJ Dividend Payment                     00000000000612.00JMD   01122011                              N                                                                                          
CI       404041886CNCBJ Dividend Payment                     00000000007344.00JMD   01122011                              N                                                                                          
CI       134048395CNCBJ Dividend Payment                     00000000000421.60JMD   01122011                              N                                                                                          
CI       304008814CNCBJ Dividend Payment                     00000000000007.82JMD   01122011                              N                                                                                          
CI       474228770CNCBJ Dividend Payment                     00000000000051.00JMD   01122011                              N                                                                                          
CI       064048341CNCBJ Dividend Payment                     00000000000153.00JMD   01122011                              N                                                                                          
CI       404010239CNCBJ Dividend Payment                     00000000000178.60JMD   01122011                              N                                                                                          
CI       214004267CNCBJ Dividend Payment                     00000000001428.00JMD   01122011                              N                                                                                          
CI       214004267CNCBJ Dividend Payment                     00000000001447.72JMD   01122011                              N                                                                                          
CI       244205151CNCBJ Dividend Payment                     00000000002109.70JMD   01122011                              N                                                                                          
CI       064233092CNCBJ Dividend Payment                     00000000000204.00JMD   01122011                              N                                                                                          
CI       614003731CNCBJ Dividend Payment                     00000000000170.00JMD   01122011                              N                                                                                          
CI       244091865CNCBJ Dividend Payment                     00000000000433.50JMD   01122011                              N                                                                                          
CI       104217966CNCBJ Dividend Payment                     00000000000117.30JMD   01122011                              N                                                                                          
CI       374037374CNCBJ Dividend Payment                     00000000000843.88JMD   01122011                              N                                                                                          
CI       374202243CNCBJ Dividend Payment                     00000000000204.00JMD   01122011                              N                                                                                          
CI       354005425CNCBJ Dividend Payment                     00000000004080.00JMD   01122011                              N                                                                                          
CI       684241796CNCBJ Dividend Payment                     00000000000408.00JMD   01122011                              N                                                                                          
CI       304251271CNCBJ Dividend Payment                     00000000000057.12JMD   01122011                              N                                                                                          
CI       234243063CNCBJ Dividend Payment                     00000000000408.00JMD   01122011                              N                                                                                          
CI       234243950CNCBJ Dividend Payment                     00000000000421.60JMD   01122011                              N                                                                                          
CI       374202790CNCBJ Dividend Payment                     00000000000680.00JMD   01122011                              N                                                                                          
CI       064298631CNCBJ Dividend Payment                     00000000000204.00JMD   01122011                              N                                                                                          
CI       354005204CNCBJ Dividend Payment                     00000000000204.00JMD   01122011                              N                                                                                          
CI       354005204CNCBJ Dividend Payment                     00000000000375.99JMD   01122011                              N                                                                                          
CI       504267091CNCBJ Dividend Payment                     00000000000163.20JMD   01122011                              N                                                                                          
CI       324165517CNCBJ Dividend Payment                     00000000002652.00JMD   01122011                              N                                                                                          
CI       574264243CNCBJ Dividend Payment                     00000000000204.00JMD   01122011                              N                                                                                          
CI       564009997CNCBJ Dividend Payment                     00000000000102.00JMD   01122011                              N                                                                                          
CI       584224452CNCBJ Dividend Payment                     00000000004080.00JMD   01122011                              N                                                                                          
CI       391047812CNCBJ Dividend Payment                     00000000000006.80JMD   01122011                              N                                                                                          
CI       391047812CNCBJ Dividend Payment                     00000000000510.00JMD   01122011                              N                                                                                          
CI       614249153CNCBJ Dividend Payment                     00000000001387.20JMD   01122011                              N                                                                                          
CI       874255912CNCBJ Dividend Payment                     00000000000408.00JMD   01122011                              N                                                                                          
CI       174435790CNCBJ Dividend Payment                     00000000000204.00JMD   01122011                              N                                                                                          
CI       324006338CNCBJ Dividend Payment                     00000000001428.00JMD   01122011                              N                                                                                          
CI       854256459CNCBJ Dividend Payment                     00000000000173.40JMD   01122011                              N                                                                                          
CI       564191248CNCBJ Dividend Payment                     00000000000102.00JMD   01122011                              N                                                                                          
CI       504264912CNCBJ Dividend Payment                     00000000000850.00JMD   01122011                              N                                                                                          
CI       324265678CNCBJ Dividend Payment                     00000000000693.60JMD   01122011                              N                                                                                          
CI       644068315CNCBJ Dividend Payment                     00000000000069.36JMD   01122011                              N                                                                                          
CI       234261517CNCBJ Dividend Payment                     00000000000058.14JMD   01122011                              N                                                                                          
CI       305351555CNCBJ Dividend Payment                     00000000000346.80JMD   01122011                              N                                                                                          
CI       644258505CNCBJ Dividend Payment                     00000000000346.80JMD   01122011                              N                                                                                          
CI       371081216CNCBJ Dividend Payment                     00000000000765.00JMD   01122011                              N                                                                                          
CI       062726512CNCBJ Dividend Payment                     00000000000069.36JMD   01122011                              N                                                                                          
CI       304008563CNCBJ Dividend Payment                     00000000001265.48JMD   01122011                              N                                                                                          
CI       504270394CNCBJ Dividend Payment                     00000000000204.00JMD   01122011                              N                                                                                          
CI       504270394CNCBJ Dividend Payment                     00000000000204.00JMD   01122011                              N                                                                                          
CI       364082053CNCBJ Dividend Payment                     00000000000204.00JMD   01122011                              N                                                                                          
CI       364082053CNCBJ Dividend Payment                     00000000000204.00JMD   01122011                              N                                                                                          
CI       364082053CNCBJ Dividend Payment                     00000000000204.00JMD   01122011                              N                                                                                          
CI       364082053CNCBJ Dividend Payment                     00000000000204.00JMD   01122011                              N                                                                                          
CI       644263703CNCBJ Dividend Payment                     00000000000408.00JMD   01122011                              N                                                                                          
CI       504378039CNCBJ Dividend Payment                     00000000000173.40JMD   01122011                              N                                                                                          
CI       234268538CNCBJ Dividend Payment                     00000000000816.00JMD   01122011                              N                                                                                          
CI       304202262CNCBJ Dividend Payment                     00000000000573.75JMD   01122011                              N                                                                                          
CI       101054136CNCBJ Dividend Payment                     00000000012362.40JMD   01122011                              N                                                                                          
CI       434004713CNCBJ Dividend Payment                     00000000000102.00JMD   01122011                              N                                                                                          
CI       211107707CNCBJ Dividend Payment                     00000000003346.62JMD   01122011                              N                                                                                          
CI       234273779CNCBJ Dividend Payment                     00000000000425.00JMD   01122011                              N                                                                                          
CI       544455435CNCBJ Dividend Payment                     00000000006457.28JMD   01122011                              N                                                                                          
CI       305040525CNCBJ Dividend Payment                     00000000000408.00JMD   01122011                              N                                                                                          
CI       354262339CNCBJ Dividend Payment                     00000000000204.00JMD   01122011                              N                                                                                          
CI       354262339CNCBJ Dividend Payment                     00000000000204.00JMD   01122011                              N                                                                                          
CI       784294439CNCBJ Dividend Payment                     00000000000173.40JMD   01122011                              N                                                                                          
CI       501000558CNCBJ Dividend Payment                     00000000000714.00JMD   01122011                              N                                                                                          
CI       504085988CNCBJ Dividend Payment                     00000000000102.00JMD   01122011                              N                                                                                          
CI       105399790CNCBJ Dividend Payment                     00000000000408.00JMD   01122011                              N                                                                                          
CI       204209839CNCBJ Dividend Payment                     00000000000210.12JMD   01122011                              N                                                                                          
CI       644284255CNCBJ Dividend Payment                     00000000000081.60JMD   01122011                              N                                                                                          
CI       321135536CNCBJ Dividend Payment                     00000000000242.76JMD   01122011                              N                                                                                          
CI       364044178CNCBJ Dividend Payment                     00000000000204.00JMD   01122011                              N                                                                                          
CI       474003612CNCBJ Dividend Payment                     00000000000408.00JMD   01122011                              N                                                                                          
CI       404316982CNCBJ Dividend Payment                     00000000001040.40JMD   01122011                              N                                                                                          
CI       544295047CNCBJ Dividend Payment                     00000000001428.00JMD   01122011                              N                                                                                          
CI       324306587CNCBJ Dividend Payment                     00000000001265.48JMD   01122011                              N                                                                                          
CI       784317250CNCBJ Dividend Payment                     00000000000204.00JMD   01122011                              N                                                                                          
CI       374010484CNCBJ Dividend Payment                     00000000000102.00JMD   01122011                              N                                                                                          
CI       234293338CNCBJ Dividend Payment                     00000000000204.68JMD   01122011                              N                                                                                          
CI       234294431CNCBJ Dividend Payment                     00000000000408.00JMD   01122011                              N                                                                                          
CI       564325171CNCBJ Dividend Payment                     00000000002652.00JMD   01122011                              N                                                                                          
CI       304529288CNCBJ Dividend Payment                     00000000000408.00JMD   01122011                              N                                                                                          
CI       684050133CNCBJ Dividend Payment                     00000000001428.00JMD   01122011                              N                                                                                          
CI       434006651CNCBJ Dividend Payment                     00000000000210.12JMD   01122011                              N                                                                                          
CI       234299344CNCBJ Dividend Payment                     00000000000204.00JMD   01122011                              N                                                                                          
CI       304320532CNCBJ Dividend Payment                     00000000000204.00JMD   01122011                              N                                                                                          
CI       474294080CNCBJ Dividend Payment                     00000000000204.68JMD   01122011                              N                                                                                          
CI       064302760CNCBJ Dividend Payment                     00000000000816.00JMD   01122011                              N                                                                                          
CI       065496798CNCBJ Dividend Payment                     00000000000421.60JMD   01122011                              N                                                                                          
CI       874322768CNCBJ Dividend Payment                     00000000001632.00JMD   01122011                              N                                                                                          
CI       241095029CNCBJ Dividend Payment                     00000000004220.08JMD   01122011                              N                                                                                          
CI       324081194CNCBJ Dividend Payment                     00000000001413.38JMD   01122011                              N                                                                                          
CI       894008288CNCBJ Dividend Payment                     00000000000816.00JMD   01122011                              N                                                                                          
CI       894008237CNCBJ Dividend Payment                     00000000000843.88JMD   01122011                              N                                                                                          
CI       784156729CNCBJ Dividend Payment                     00000000003060.00JMD   01122011                              N                                                                                          
CI       334007243CNCBJ Dividend Payment                     00000000000421.60JMD   01122011                              N                                                                                          
CI       304380543CNCBJ Dividend Payment                     00000000000204.00JMD   01122011                              N                                                                                          
CI       354166453CNCBJ Dividend Payment                     00000000001387.20JMD   01122011                              N                                                                                          
CI       814324168CNCBJ Dividend Payment                     00000000000421.60JMD   01122011                              N                                                                                          
CI       814324168CNCBJ Dividend Payment                     00000000000102.00JMD   01122011                              N                                                                                          
CI       374048864CNCBJ Dividend Payment                     00000000001179.12JMD   01122011                              N                                                                                          
CI       434309700CNCBJ Dividend Payment                     00000000000408.00JMD   01122011                              N                                                                                          
CI       354313677CNCBJ Dividend Payment                     00000000000408.00JMD   01122011                              N                                                                                          
CI       334314391CNCBJ Dividend Payment                     00000000000408.00JMD   01122011                              N                                                                                          
CI       374011529CNCBJ Dividend Payment                     00000000002953.92JMD   01122011                              N                                                                                          
CI       064308882CNCBJ Dividend Payment                     00000000001509.60JMD   01122011                              N                                                                                          
CI       214044838CNCBJ Dividend Payment                     00000000000051.00JMD   01122011                              N                                                                                          
CI       244216358CNCBJ Dividend Payment                     00000000000173.40JMD   01122011                              N                                                                                          
CI       105403542CNCBJ Dividend Payment                     00000000000026.18JMD   01122011                              N                                                                                          
CI       574014743CNCBJ Dividend Payment                     00000000000948.94JMD   01122011                              N                                                                                          
CI       574014743CNCBJ Dividend Payment                     00000000030362.00JMD   01122011                              N                                                                                          
CI       244000606CNCBJ Dividend Payment                     00000000004080.00JMD   01122011                              N                                                                                          
CI       244000606CNCBJ Dividend Payment                     00000000000931.60JMD   01122011                              N                                                                                          
CI       894167696CNCBJ Dividend Payment                     00000000001218.90JMD   01122011                              N                                                                                          
CI       354322838CNCBJ Dividend Payment                     00000000000042.50JMD   01122011                              N                                                                                          
CI       644316912CNCBJ Dividend Payment                     00000000000043.52JMD   01122011                              N                                                                                          
CI       334059871CNCBJ Dividend Payment                     00000000001012.37JMD   01122011                              N                                                                                          
CI       504341550CNCBJ Dividend Payment                     00000000000173.40JMD   01122011                              N                                                                                          
CI       304336609CNCBJ Dividend Payment                     00000000000204.00JMD   01122011                              N                                                                                          
CI       434322626CNCBJ Dividend Payment                     00000000000102.00JMD   01122011                              N                                                                                          
CI       434055482CNCBJ Dividend Payment                     00000000000204.00JMD   01122011                              N                                                                                          
CI       714022962CNCBJ Dividend Payment                     00000000000408.00JMD   01122011                              N                                                                                          
CI       714338706CNCBJ Dividend Payment                     00000000000408.00JMD   01122011                              N                                                                                          
CI       584013052CNCBJ Dividend Payment                     00000000001428.00JMD   01122011                              N                                                                                          
CI       614321474CNCBJ Dividend Payment                     00000000004080.00JMD   01122011                              N                                                                                          
CI       234318357CNCBJ Dividend Payment                     00000000000693.60JMD   01122011                              N                                                                                          
CI       214021552CNCBJ Dividend Payment                     00000000006122.72JMD   01122011                              N                                                                                          
CI       214021552CNCBJ Dividend Payment                     00000000012650.38JMD   01122011                              N                                                                                          
CI       234015850CNCBJ Dividend Payment                     00000000001040.40JMD   01122011                              N                                                                                          
CI       334016838CNCBJ Dividend Payment                     00000000000346.80JMD   01122011                              N                                                                                          
CI       064484591CNCBJ Dividend Payment                     00000000008445.60JMD   01122011                              N                                                                                          
CI       884086248CNCBJ Dividend Payment                     00000000000816.00JMD   01122011                              N                                                                                          
CI       544077449CNCBJ Dividend Payment                     00000000000408.00JMD   01122011                              N                                                                                          
CI       374207318CNCBJ Dividend Payment                     00000000002449.70JMD   01122011                              N                                                                                          
CI       504356124CNCBJ Dividend Payment                     00000000000004.08JMD   01122011                              N                                                                                          
CI       243003318CNCBJ Dividend Payment                     00000000000017.00JMD   01122011                              N                                                                                          
CI       354334712CNCBJ Dividend Payment                     00000000004039.20JMD   01122011                              N                                                                                          
CI       544120840CNCBJ Dividend Payment                     00000000000102.00JMD   01122011                              N                                                                                          
CI       501150975CNCBJ Dividend Payment                     00000000000408.00JMD   01122011                              N                                                                                          
CI       644326101CNCBJ Dividend Payment                     00000000000153.00JMD   01122011                              N                                                                                          
CI       404105140CNCBJ Dividend Payment                     00000000010200.00JMD   01122011                              N                                                                                          
CI       101079198CNCBJ Dividend Payment                     00000000000408.00JMD   01122011                              N                                                                                          
CI       354304171CNCBJ Dividend Payment                     00000000000204.00JMD   01122011                              N                                                                                          
CI       474209059CNCBJ Dividend Payment                     00000000002856.00JMD   01122011                              N                                                                                          
CI       304017805CNCBJ Dividend Payment                     00000000000612.00JMD   01122011                              N                                                                                          
CI       404365959CNCBJ Dividend Payment                     00000000001377.00JMD   01122011                              N                                                                                          
CI       471157287CNCBJ Dividend Payment                     00000000001447.72JMD   01122011                              N                                                                                          
CI       874029831CNCBJ Dividend Payment                     00000000004080.00JMD   01122011                              N                                                                                          
CI       564019380CNCBJ Dividend Payment                     00000000000612.00JMD   01122011                              N                                                                                          
CI       324167986CNCBJ Dividend Payment                     00000000000069.36JMD   01122011                              N                                                                                          
CI       324163433CNCBJ Dividend Payment                     00000000000011.22JMD   01122011                              N                                                                                          
CI       564206040CNCBJ Dividend Payment                     00000000000520.20JMD   01122011                              N                                                                                          
CI       354023954CNCBJ Dividend Payment                     00000000000153.00JMD   01122011                              N                                                                                          
CI       214015579CNCBJ Dividend Payment                     00000000001428.00JMD   01122011                              N                                                                                          
CI       105041128CNCBJ Dividend Payment                     00000000000040.80JMD   01122011                              N                                                                                          
CI       435014070CNCBJ Dividend Payment                     00000000002040.00JMD   01122011                              N                                                                                          
CI       564156515CNCBJ Dividend Payment                     00000000000408.00JMD   01122011                              N                                                                                          
CI       354013371CNCBJ Dividend Payment                     00000000000408.00JMD   01122011                              N                                                                                          
CI       584296941CNCBJ Dividend Payment                     00000000000204.00JMD   01122011                              N                                                                                          
CI       214506904CNCBJ Dividend Payment                     00000000000510.00JMD   01122011                              N                                                                                          
CI       064306944CNCBJ Dividend Payment                     00000000000102.00JMD   01122011                              N                                                                                          
CI       684350196CNCBJ Dividend Payment                     00000000000408.00JMD   01122011                              N                                                                                          
CI       574022401CNCBJ Dividend Payment                     00000000000051.00JMD   01122011                              N                                                                                          
CI       234018485CNCBJ Dividend Payment                     00000000000421.60JMD   01122011                              N                                                                                          
CI       304019654CNCBJ Dividend Payment                     00000000004080.00JMD   01122011                              N                                                                                          
CI       354353148CNCBJ Dividend Payment                     00000000000930.58JMD   01122011                              N                                                                                          
CI       334177513CNCBJ Dividend Payment                     00000000004681.80JMD   01122011                              N                                                                                          
CI       334177513CNCBJ Dividend Payment                     00000000001248.48JMD   01122011                              N                                                                                          
CI       334358690CNCBJ Dividend Payment                     00000000000421.60JMD   01122011                              N                                                                                          
CI       434920477CNCBJ Dividend Payment                     00000000000408.00JMD   01122011                              N                                                                                          
CI       231176322CNCBJ Dividend Payment                     00000000004220.08JMD   01122011                              N                                                                                          
CI       174003823CNCBJ Dividend Payment                     00000000000408.00JMD   01122011                              N                                                                                          
CI       434355591CNCBJ Dividend Payment                     00000000000421.60JMD   01122011                              N                                                                                          
CI       244056172CNCBJ Dividend Payment                     00000000000893.26JMD   01122011                              N                                                                                          
CI       504019012CNCBJ Dividend Payment                     00000000002040.00JMD   01122011                              N                                                                                          
CI       571212978CNCBJ Dividend Payment                     00000000012623.52JMD   01122011                              N                                                                                          
CI       813255367CNCBJ Dividend Payment                     00000000000408.00JMD   01122011                              N                                                                                          
CI       404025953CNCBJ Dividend Payment                     00000000001020.00JMD   01122011                              N                                                                                          
CI       064351915CNCBJ Dividend Payment                     00000000008445.60JMD   01122011                              N                                                                                          
CI       474004945CNCBJ Dividend Payment                     00000000000204.00JMD   01122011                              N                                                                                          
CI       444055987CNCBJ Dividend Payment                     00000000000204.00JMD   01122011                              N                                                                                          
CI       444055987CNCBJ Dividend Payment                     00000000000006.12JMD   01122011                              N                                                                                          
CI       444053402CNCBJ Dividend Payment                     00000000000843.88JMD   01122011                              N                                                                                          
CI       784018504CNCBJ Dividend Payment                     00000000003076.32JMD   01122011                              N                                                                                          
CI       504403637CNCBJ Dividend Payment                     00000000000408.00JMD   01122011                              N                                                                                          
CI       564353809CNCBJ Dividend Payment                     00000000001020.00JMD   01122011                              N                                                                                          
CI       304511435CNCBJ Dividend Payment                     00000000000408.00JMD   01122011                              N                                                                                          
CI       304511435CNCBJ Dividend Payment                     00000000000408.00JMD   01122011                              N                                                                                          
CI       304511435CNCBJ Dividend Payment                     00000000000408.00JMD   01122011                              N                                                                                          
CI       324024719CNCBJ Dividend Payment                     00000000002040.00JMD   01122011                              N                                                                                          
CI       234020323CNCBJ Dividend Payment                     00000000009628.80JMD   01122011                              N                                                                                          
CI       364003811CNCBJ Dividend Payment                     00000000000051.00JMD   01122011                              N                                                                                          
CI       301208782CNCBJ Dividend Payment                     00000000011546.40JMD   01122011                              N                                                                                          
CI       504336050CNCBJ Dividend Payment                     00000000004080.00JMD   01122011                              N                                                                                          
CI       544021559CNCBJ Dividend Payment                     00000000001040.40JMD   01122011                              N                                                                                          
CI       334385027CNCBJ Dividend Payment                     00000000000537.83JMD   01122011                              N                                                                                          
CI       214388332CNCBJ Dividend Payment                     00000000000816.00JMD   01122011                              N                                                                                          
CI       854190555CNCBJ Dividend Payment                     00000000000204.00JMD   01122011                              N                                                                                          
CI       134025190CNCBJ Dividend Payment                     00000000004080.00JMD   01122011                              N                                                                                          
CI       784083004CNCBJ Dividend Payment                     00000000000204.00JMD   01122011                              N                                                                                          
CI       434369312CNCBJ Dividend Payment                     00000000000408.00JMD   01122011                              N                                                                                          
CI       404000128CNCBJ Dividend Payment                     00000000000210.12JMD   01122011                              N                                                                                          
CI       234367471CNCBJ Dividend Payment                     00000000000421.60JMD   01122011                              N                                                                                          
CI       475110439CNCBJ Dividend Payment                     00000000000204.00JMD   01122011                              N                                                                                          
CI       334004392CNCBJ Dividend Payment                     00000000004220.08JMD   01122011                              N                                                                                          
CI       894411937CNCBJ Dividend Payment                     00000000000340.00JMD   01122011                              N                                                                                          
CI       584114169CNCBJ Dividend Payment                     00000000001060.80JMD   01122011                              N                                                                                          
CI       584114169CNCBJ Dividend Payment                     00000000000240.72JMD   01122011                              N                                                                                          
CI       474004864CNCBJ Dividend Payment                     00000000000005.10JMD   01122011                              N                                                                                          
CI       434393299CNCBJ Dividend Payment                     00000000000051.00JMD   01122011                              N                                                                                          
CI       474836231CNCBJ Dividend Payment                     00000000001428.00JMD   01122011                              N                                                                                          
CI       564336041CNCBJ Dividend Payment                     00000000000816.00JMD   01122011                              N                                                                                          
CI       434384362CNCBJ Dividend Payment                     00000000000632.74JMD   01122011                              N                                                                                          
CI       504219054CNCBJ Dividend Payment                     00000000000510.00JMD   01122011                              N                                                                                          
CI       814392023CNCBJ Dividend Payment                     00000000000210.12JMD   01122011                              N                                                                                          
CI       234020951CNCBJ Dividend Payment                     00000000004080.00JMD   01122011                              N                                                                                          
CI       713001686CNCBJ Dividend Payment                     00000000000182.58JMD   01122011                              N                                                                                          
CI       894426497CNCBJ Dividend Payment                     00000000000136.00JMD   01122011                              N                                                                                          
CI       894426497CNCBJ Dividend Payment                     00000000000306.00JMD   01122011                              N                                                                                          
CI       714039288CNCBJ Dividend Payment                     00000000000510.00JMD   01122011                              N                                                                                          
CI       354017083CNCBJ Dividend Payment                     00000000000204.00JMD   01122011                              N                                                                                          
CI       303031146CNCBJ Dividend Payment                     00000000002577.20JMD   01122011                              N                                                                                          
CI       304022671CNCBJ Dividend Payment                     00000000009622.00JMD   01122011                              N                                                                                          
CI       304022671CNCBJ Dividend Payment                     00000000008160.00JMD   01122011                              N                                                                                          
CI       434635764CNCBJ Dividend Payment                     00000000000173.40JMD   01122011                              N                                                                                          
CI       304158883CNCBJ Dividend Payment                     00000000000210.12JMD   01122011                              N                                                                                          
CI       304158883CNCBJ Dividend Payment                     00000000000051.00JMD   01122011                              N                                                                                          
CI       303284435CNCBJ Dividend Payment                     00000000000081.60JMD   01122011                              N                                                                                          
CI       353290886CNCBJ Dividend Payment                     00000000000123.08JMD   01122011                              N                                                                                          
CI       244032540CNCBJ Dividend Payment                     00000000000408.00JMD   01122011                              N                                                                                          
CI       354025469CNCBJ Dividend Payment                     00000000000204.00JMD   01122011                              N                                                                                          
CI       354025469CNCBJ Dividend Payment                     00000000000006.12JMD   01122011                              N                                                                                          
CI       353290886CNCBJ Dividend Payment                     00000000000074.80JMD   01122011                              N                                                                                          
CI       854190555CNCBJ Dividend Payment                     00000000000210.12JMD   01122011                              N                                                                                          
CI       304236310CNCBJ Dividend Payment                     00000000000843.88JMD   01122011                              N                                                                                          
CI       304416858CNCBJ Dividend Payment                     00000000000408.00JMD   01122011                              N                                                                                          
CI       374019902CNCBJ Dividend Payment                     00000000003468.00JMD   01122011                              N                                                                                          
CI       065070545CNCBJ Dividend Payment                     00000000000204.00JMD   01122011                              N                                                                                          
CI       364539649CNCBJ Dividend Payment                     00000000000408.00JMD   01122011                              N                                                                                          
CI       234027492CNCBJ Dividend Payment                     00000000001224.00JMD   01122011                              N                                                                                          
CI       684089862CNCBJ Dividend Payment                     00000000000043.35JMD   01122011                              N                                                                                          
CI       064134949CNCBJ Dividend Payment                     00000000000408.00JMD   01122011                              N                                                                                          
CI       364539819CNCBJ Dividend Payment                     00000000000408.00JMD   01122011                              N                                                                                          
CI       444422815CNCBJ Dividend Payment                     00000000000421.60JMD   01122011                              N                                                                                          
CI       504144232CNCBJ Dividend Payment                     00000000000612.00JMD   01122011                              N                                                                                          
CI       854410113CNCBJ Dividend Payment                     00000000001688.10JMD   01122011                              N                                                                                          
CI       244229735CNCBJ Dividend Payment                     00000000000841.50JMD   01122011                              N                                                                                          
CI       854409972CNCBJ Dividend Payment                     00000000000843.88JMD   01122011                              N                                                                                          
CI       394020540CNCBJ Dividend Payment                     00000000000055.76JMD   01122011                              N                                                                                          
CI       644147584CNCBJ Dividend Payment                     00000000015362.90JMD   01122011                              N                                                                                          
CI       893002871CNCBJ Dividend Payment                     00000000000145.18JMD   01122011                              N                                                                                          
CI       234118196CNCBJ Dividend Payment                     00000000000421.60JMD   01122011                              N                                                                                          
CI       643102218CNCBJ Dividend Payment                     00000000000249.90JMD   01122011                              N                                                                                          
CI       434022207CNCBJ Dividend Payment                     00000000000612.00JMD   01122011                              N                                                                                          
CI       474068188CNCBJ Dividend Payment                     00000000000173.40JMD   01122011                              N                                                                                          
CI       063142956CNCBJ Dividend Payment                     00000000000567.12JMD   01122011                              N                                                                                          
CI       063142956CNCBJ Dividend Payment                     00000000000825.18JMD   01122011                              N                                                                                          
CI       063142956CNCBJ Dividend Payment                     00000000000085.00JMD   01122011                              N                                                                                          
CI       304430753CNCBJ Dividend Payment                     00000000000421.60JMD   01122011                              N                                                                                          
CI       684418688CNCBJ Dividend Payment                     00000000000034.00JMD   01122011                              N                                                                                          
CI       324024883CNCBJ Dividend Payment                     00000000000510.00JMD   01122011                              N                                                                                          
CI       444022914CNCBJ Dividend Payment                     00000000002989.28JMD   01122011                              N                                                                                          
CI       444022914CNCBJ Dividend Payment                     00000000000102.00JMD   01122011                              N                                                                                          
CI       684418688CNCBJ Dividend Payment                     00000000000034.00JMD   01122011                              N                                                                                          
CI       353080555CNCBJ Dividend Payment                     00000000000036.38JMD   01122011                              N                                                                                          
CI       324171193CNCBJ Dividend Payment                     00000000000408.00JMD   01122011                              N                                                                                          
CI       304434147CNCBJ Dividend Payment                     00000000000210.12JMD   01122011                              N                                                                                          
CI       614314214CNCBJ Dividend Payment                     00000000000006.80JMD   01122011                              N                                                                                          
CI       614314214CNCBJ Dividend Payment                     00000000000438.60JMD   01122011                              N                                                                                          
CI       234406515CNCBJ Dividend Payment                     00000000000210.12JMD   01122011                              N                                                                                          
CI       714039229CNCBJ Dividend Payment                     00000000000120.02JMD   01122011                              N                                                                                          
CI       304435712CNCBJ Dividend Payment                     00000000000408.00JMD   01122011                              N                                                                                          
CI       401280316CNCBJ Dividend Payment                     00000000000340.00JMD   01122011                              N                                                                                          
CI       644418685CNCBJ Dividend Payment                     00000000000204.00JMD   01122011                              N                                                                                          
CI       644419576CNCBJ Dividend Payment                     00000000000204.00JMD   01122011                              N                                                                                          
CI       474421252CNCBJ Dividend Payment                     00000000000632.74JMD   01122011                              N                                                                                          
CI       684430211CNCBJ Dividend Payment                     00000000004080.00JMD   01122011                              N                                                                                          
CI       394414654CNCBJ Dividend Payment                     00000000007512.64JMD   01122011                              N                                                                                          
CI       304442298CNCBJ Dividend Payment                     00000000000204.00JMD   01122011                              N                                                                                          
CI       574467004CNCBJ Dividend Payment                     00000000000042.50JMD   01122011                              N                                                                                          
CI       404443461CNCBJ Dividend Payment                     00000000000204.00JMD   01122011                              N                                                                                          
CI       104056342CNCBJ Dividend Payment                     00000000000013.60JMD   01122011                              N                                                                                          
CI       303144390CNCBJ Dividend Payment                     00000000000007.82JMD   01122011                              N                                                                                          
CI       304447648CNCBJ Dividend Payment                     00000000000408.00JMD   01122011                              N                                                                                          
CI       304448385CNCBJ Dividend Payment                     00000000000244.80JMD   01122011                              N                                                                                          
CI       063057312CNCBJ Dividend Payment                     00000000000063.58JMD   01122011                              N                                                                                          
CI       714041983CNCBJ Dividend Payment                     00000000000408.00JMD   01122011                              N                                                                                          
CI       714041983CNCBJ Dividend Payment                     00000000000204.00JMD   01122011                              N                                                                                          
CI       714041983CNCBJ Dividend Payment                     00000000000816.00JMD   01122011                              N                                                                                          
CI       234027360CNCBJ Dividend Payment                     00000000000051.00JMD   01122011                              N                                                                                          
CI       364540809CNCBJ Dividend Payment                     00000000002531.98JMD   01122011                              N                                                                                          
CI       064026593CNCBJ Dividend Payment                     00000000000612.00JMD   01122011                              N                                                                                          
CI       434025966CNCBJ Dividend Payment                     00000000000510.00JMD   01122011                              N                                                                                          
CI       854430343CNCBJ Dividend Payment                     00000000000204.00JMD   01122011                              N                                                                                          
CI       444027118CNCBJ Dividend Payment                     00000000002109.70JMD   01122011                              N                                                                                          
CI       234189816CNCBJ Dividend Payment                     00000000000291.72JMD   01122011                              N                                                                                          
CI       064484311CNCBJ Dividend Payment                     00000000000210.12JMD   01122011                              N                                                                                          
CI       874055689CNCBJ Dividend Payment                     00000000000210.12JMD   01122011                              N                                                                                          
CI       584027215CNCBJ Dividend Payment                     00000000000210.12JMD   01122011                              N                                                                                          
CI       584027215CNCBJ Dividend Payment                     00000000000255.00JMD   01122011                              N                                                                                          
CI       434445523CNCBJ Dividend Payment                     00000000000210.12JMD   01122011                              N                                                                                          
CI       394024155CNCBJ Dividend Payment                     00000000000102.00JMD   01122011                              N                                                                                          
CI       064025619CNCBJ Dividend Payment                     00000000011546.40JMD   01122011                              N                                                                                          
CI       444461004CNCBJ Dividend Payment                     00000000000346.80JMD   01122011                              N                                                                                          
CI       564220825CNCBJ Dividend Payment                     00000000000173.40JMD   01122011                              N                                                                                          
CI       304027908CNCBJ Dividend Payment                     00000000001428.00JMD   01122011                              N                                                                                          
CI       065700042CNCBJ Dividend Payment                     00000000000421.60JMD   01122011                              N                                                                                          
CI       244104398CNCBJ Dividend Payment                     00000000000102.00JMD   01122011                              N                                                                                          
CI       474007359CNCBJ Dividend Payment                     00000000002040.00JMD   01122011                              N                                                                                          
CI       065033569CNCBJ Dividend Payment                     00000000000204.00JMD   01122011                              N                                                                                          
CI       404463993CNCBJ Dividend Payment                     00000000000210.12JMD   01122011                              N                                                                                          
CI       874486981CNCBJ Dividend Payment                     00000000000173.40JMD   01122011                              N                                                                                          
CI       613021507CNCBJ Dividend Payment                     00000000000408.00JMD   01122011                              N                                                                                          
CI       754475889CNCBJ Dividend Payment                     00000000001734.00JMD   01122011                              N                                                                                          
CI       351211296CNCBJ Dividend Payment                     00000000001734.00JMD   01122011                              N                                                                                          
CI       231266704CNCBJ Dividend Payment                     00000000001713.60JMD   01122011                              N                                                                                          
CI       604070503CNCBJ Dividend Payment                     00000000000054.40JMD   01122011                              N                                                                                          
CI       544169610CNCBJ Dividend Payment                     00000000004440.77JMD   01122011                              N                                                                                          
CI       234452568CNCBJ Dividend Payment                     00000000000081.60JMD   01122011                              N                                                                                          
CI       584091282CNCBJ Dividend Payment                     00000000000051.00JMD   01122011                              N                                                                                          
CI       324025898CNCBJ Dividend Payment                     00000000002040.00JMD   01122011                              N                                                                                          
CI       244236561CNCBJ Dividend Payment                     00000000002254.20JMD   01122011                              N                                                                                          
CI       371251251CNCBJ Dividend Payment                     00000000004220.08JMD   01122011                              N                                                                                          
CI       684018027CNCBJ Dividend Payment                     00000000002040.00JMD   01122011                              N                                                                                          
CI       434428963CNCBJ Dividend Payment                     00000000000204.00JMD   01122011                              N                                                                                          
CI       352009970CNCBJ Dividend Payment                     00000000000632.74JMD   01122011                              N                                                                                          
CI       352009970CNCBJ Dividend Payment                     00000000023804.08JMD   01122011                              N                                                                                          
CI       874031771CNCBJ Dividend Payment                     00000000001734.00JMD   01122011                              N                                                                                          
CI       374026216CNCBJ Dividend Payment                     00000000002040.00JMD   01122011                              N                                                                                          
CI       374480464CNCBJ Dividend Payment                     00000000002040.00JMD   01122011                              N                                                                                          
CI       064192124CNCBJ Dividend Payment                     00000000002109.70JMD   01122011                              N                                                                                          
CI       064192124CNCBJ Dividend Payment                     00000000000510.00JMD   01122011                              N                                                                                          
CI       064192124CNCBJ Dividend Payment                     00000000002109.70JMD   01122011                              N                                                                                          
CI       324056599CNCBJ Dividend Payment                     00000000000102.00JMD   01122011                              N                                                                                          
CI       324056599CNCBJ Dividend Payment                     00000000000081.60JMD   01122011                              N                                                                                          
CI       064027468CNCBJ Dividend Payment                     00000000001632.00JMD   01122011                              N                                                                                          
CI       064486357CNCBJ Dividend Payment                     00000000000346.80JMD   01122011                              N                                                                                          
CI       364090196CNCBJ Dividend Payment                     00000000000816.00JMD   01122011                              N                                                                                          
CI       364090196CNCBJ Dividend Payment                     00000000001527.62JMD   01122011                              N                                                                                          
CI       404092057CNCBJ Dividend Payment                     00000000001265.48JMD   01122011                              N                                                                                          
CI       474962784CNCBJ Dividend Payment                     00000000000358.36JMD   01122011                              N                                                                                          
CI       324027947CNCBJ Dividend Payment                     00000000000510.00JMD   01122011                              N                                                                                          
CI       304030372CNCBJ Dividend Payment                     00000000000510.00JMD   01122011                              N                                                                                          
CI       434470471CNCBJ Dividend Payment                     00000000000034.00JMD   01122011                              N                                                                                          
CI       064500775CNCBJ Dividend Payment                     00000000000421.60JMD   01122011                              N                                                                                          
CI       754511699CNCBJ Dividend Payment                     00000000000408.00JMD   01122011                              N                                                                                          
CI       434387612CNCBJ Dividend Payment                     00000000000210.12JMD   01122011                              N                                                                                          
CI       354146290CNCBJ Dividend Payment                     00000000004080.00JMD   01122011                              N                                                                                          
CI       434030730CNCBJ Dividend Payment                     00000000000408.00JMD   01122011                              N                                                                                          
CI       754504323CNCBJ Dividend Payment                     00000000000051.00JMD   01122011                              N                                                                                          
CI       304909455CNCBJ Dividend Payment                     00000000000408.00JMD   01122011                              N                                                                                          
CI       351228547CNCBJ Dividend Payment                     00000000002167.50JMD   01122011                              N                                                                                          
CI       351228547CNCBJ Dividend Payment                     00000000004335.00JMD   01122011                              N                                                                                          
CI       064463276CNCBJ Dividend Payment                     00000000000421.60JMD   01122011                              N                                                                                          
CI       304394064CNCBJ Dividend Payment                     00000000000068.00JMD   01122011                              N                                                                                          
CI       304356286CNCBJ Dividend Payment                     00000000003121.20JMD   01122011                              N                                                                                          
CI       374029231CNCBJ Dividend Payment                     00000000000548.08JMD   01122011                              N                                                                                          
CI       204232660CNCBJ Dividend Payment                     00000000000023.12JMD   01122011                              N                                                                                          
CI       354490609CNCBJ Dividend Payment                     00000000000051.00JMD   01122011                              N                                                                                          
CI       304209321CNCBJ Dividend Payment                     00000000000586.09JMD   01122011                              N                                                                                          
CI       364027982CNCBJ Dividend Payment                     00000000000408.00JMD   01122011                              N                                                                                          
CI       541249176CNCBJ Dividend Payment                     00000000000421.60JMD   01122011                              N                                                                                          
CI       364258275CNCBJ Dividend Payment                     00000000002448.00JMD   01122011                              N                                                                                          
CI       374507737CNCBJ Dividend Payment                     00000000036720.00JMD   01122011                              N                                                                                          
CI       374012401CNCBJ Dividend Payment                     00000000000017.00JMD   01122011                              N                                                                                          
CI       374012401CNCBJ Dividend Payment                     00000000010475.06JMD   01122011                              N                                                                                          
CI       334490661CNCBJ Dividend Payment                     00000000000816.00JMD   01122011                              N                                                                                          
CI       404504142CNCBJ Dividend Payment                     00000000000408.00JMD   01122011                              N                                                                                          
CI       304033061CNCBJ Dividend Payment                     00000000004080.00JMD   01122011                              N                                                                                          
CI       564525057CNCBJ Dividend Payment                     00000000000421.60JMD   01122011                              N                                                                                          
CI       244241603CNCBJ Dividend Payment                     00000000001090.40JMD   01122011                              N                                                                                          
CI       564034517CNCBJ Dividend Payment                     00000000000421.60JMD   01122011                              N                                                                                          
CI       434244544CNCBJ Dividend Payment                     00000000017380.80JMD   01122011                              N                                                                                          
CI       434244544CNCBJ Dividend Payment                     00000000002040.00JMD   01122011                              N                                                                                          
CI       444090340CNCBJ Dividend Payment                     00000000007174.71JMD   01122011                              N                                                                                          
CI       061002839CNCBJ Dividend Payment                     00000000000006.12JMD   01122011                              N                                                                                          
CI       061002839CNCBJ Dividend Payment                     00000000000112.20JMD   01122011                              N                                                                                          
CI       061002839CNCBJ Dividend Payment                     00000000000192.10JMD   01122011                              N                                                                                          
CI       645470427CNCBJ Dividend Payment                     00000000000358.36JMD   01122011                              N                                                                                          
CI       244379370CNCBJ Dividend Payment                     00000000001558.22JMD   01122011                              N                                                                                          
CI       065555573CNCBJ Dividend Payment                     00000000000006.12JMD   01122011                              N                                                                                          
CI       214000636CNCBJ Dividend Payment                     00000000000421.60JMD   01122011                              N                                                                                          
CI       334040011CNCBJ Dividend Payment                     00000000001040.40JMD   01122011                              N                                                                                          
CI       434877261CNCBJ Dividend Payment                     00000000000102.00JMD   01122011                              N                                                                                          
CI       064478532CNCBJ Dividend Payment                     00000000000408.00JMD   01122011                              N                                                                                          
CI       064478532CNCBJ Dividend Payment                     00000000000408.00JMD   01122011                              N                                                                                          
CI       364062478CNCBJ Dividend Payment                     00000000000122.40JMD   01122011                              N                                                                                          
CI       541011064CNCBJ Dividend Payment                     00000000000775.88JMD   01122011                              N                                                                                          
CI       544505483CNCBJ Dividend Payment                     00000000000116.62JMD   01122011                              N                                                                                          
CI       854105337CNCBJ Dividend Payment                     00000000001428.00JMD   01122011                              N                                                                                          
CI       304035056CNCBJ Dividend Payment                     00000000000102.00JMD   01122011                              N                                                                                          
CI       214146363CNCBJ Dividend Payment                     00000000000408.00JMD   01122011                              N                                                                                          
CI       354033577CNCBJ Dividend Payment                     00000000003565.92JMD   01122011                              N                                                                                          
CI       354033577CNCBJ Dividend Payment                     00000000001852.32JMD   01122011                              N                                                                                          
CI       234282530CNCBJ Dividend Payment                     00000000000204.00JMD   01122011                              N                                                                                          
CI       614038748CNCBJ Dividend Payment                     00000000000337.62JMD   01122011                              N                                                                                          
CI       354033577CNCBJ Dividend Payment                     00000000000087.38JMD   01122011                              N                                                                                          
CI       574107989CNCBJ Dividend Payment                     00000000006068.13JMD   01122011                              N                                                                                          
CI       574107989CNCBJ Dividend Payment                     00000000002046.12JMD   01122011                              N                                                                                          
CI       434374774CNCBJ Dividend Payment                     00000000000204.00JMD   01122011                              N                                                                                          
CI       434505313CNCBJ Dividend Payment                     00000000003264.00JMD   01122011                              N                                                                                          
CI       354532824CNCBJ Dividend Payment                     00000000000034.34JMD   01122011                              N                                                                                          
CI       304147253CNCBJ Dividend Payment                     00000000000158.10JMD   01122011                              N                                                                                          
CI       393051078CNCBJ Dividend Payment                     00000000028264.20JMD   01122011                              N                                                                                          
CI       475468562CNCBJ Dividend Payment                     00000000000612.00JMD   01122011                              N                                                                                          
CI       064830376CNCBJ Dividend Payment                     00000000000230.52JMD   01122011                              N                                                                                          
CI       874546291CNCBJ Dividend Payment                     00000000000210.12JMD   01122011                              N                                                                                          
CI       105081626CNCBJ Dividend Payment                     00000000001224.00JMD   01122011                              N                                                                                          
CI       434038898CNCBJ Dividend Payment                     00000000000421.60JMD   01122011                              N                                                                                          
CI       434248434CNCBJ Dividend Payment                     00000000000408.00JMD   01122011                              N                                                                                          
CI       374036033CNCBJ Dividend Payment                     00000000000204.00JMD   01122011                              N                                                                                          
CI       304311967CNCBJ Dividend Payment                     00000000000346.80JMD   01122011                              N                                                                                          
CI       321553184CNCBJ Dividend Payment                     00000000008445.60JMD   01122011                              N                                                                                          
